{
  "address": "0x4C37157Dc252dAcF1c88941138362F573E338F87",
  "abi": [
    {
      "inputs": [],
      "stateMutability": "nonpayable",
      "type": "constructor"
    },
    {
      "inputs": [],
      "name": "NOT_AUTHORIZED",
      "type": "error"
    },
    {
      "inputs": [
        {
          "internalType": "address payable",
          "name": "proxy",
          "type": "address"
        },
        {
          "internalType": "address",
          "name": "admin",
          "type": "address"
        }
      ],
      "name": "changeProxyAdmin",
      "outputs": [],
      "stateMutability": "nonpayable",
      "type": "function"
    },
    {
      "inputs": [
        {
          "internalType": "address payable",
          "name": "proxy",
          "type": "address"
        },
        {
          "internalType": "bytes4",
          "name": "functionId",
          "type": "bytes4"
        }
      ],
      "name": "deleteImplementation",
      "outputs": [],
      "stateMutability": "nonpayable",
      "type": "function"
    },
    {
      "inputs": [
        {
          "internalType": "address",
          "name": "proxy",
          "type": "address"
        }
      ],
      "name": "getProxyAdmin",
      "outputs": [
        {
          "internalType": "address",
          "name": "",
          "type": "address"
        }
      ],
      "stateMutability": "view",
      "type": "function"
    },
    {
      "inputs": [
        {
          "internalType": "address",
          "name": "proxy",
          "type": "address"
        },
        {
          "internalType": "bytes4",
          "name": "functionId",
          "type": "bytes4"
        }
      ],
      "name": "getProxyImplementation",
      "outputs": [
        {
          "internalType": "address",
          "name": "",
          "type": "address"
        }
      ],
      "stateMutability": "view",
      "type": "function"
    },
    {
      "inputs": [],
      "name": "owner",
      "outputs": [
        {
          "internalType": "address",
          "name": "",
          "type": "address"
        }
      ],
      "stateMutability": "view",
      "type": "function"
    },
    {
      "inputs": [
        {
          "internalType": "address payable",
          "name": "proxy",
          "type": "address"
        },
        {
          "internalType": "address",
          "name": "implementation",
          "type": "address"
        },
        {
          "internalType": "bytes4",
          "name": "functionId",
          "type": "bytes4"
        }
      ],
      "name": "upgradeImplementation",
      "outputs": [],
      "stateMutability": "nonpayable",
      "type": "function"
    }
  ],
  "transactionHash": "0x8275b7bbf4fd4b4180ba1a552448ddeb21d34aa5e1a1877126fb97eefdc36d3e",
  "args": [],
  "numDeployments": 1,
  "solcInputHash": "c0157dfaa03f2a12566eede41fcddf10",
  "bytecode": "0x608060405234801561001057600080fd5b50600080546001600160a01b03191633179055610856806100326000396000f3fe608060405234801561001057600080fd5b50600436106100725760003560e01c80637eff275e116100505780637eff275e146100db5780638da5cb5b146100ee578063f3b7dead1461010e57600080fd5b80633fe0cd72146100775780635d6747cd1461008c5780635ea90176146100c8575b600080fd5b61008a6100853660046106fb565b610121565b005b61009f61009a3660046106fb565b610218565b60405173ffffffffffffffffffffffffffffffffffffffff909116815260200160405180910390f35b61008a6100d6366004610730565b6103b4565b61008a6100e9366004610777565b6104b3565b60005461009f9073ffffffffffffffffffffffffffffffffffffffff1681565b61009f61011c3660046107b0565b610558565b60005473ffffffffffffffffffffffffffffffffffffffff163314610172576040517f3d83866f00000000000000000000000000000000000000000000000000000000815260040160405180910390fd5b6040517fd6c680690000000000000000000000000000000000000000000000000000000081527fffffffff000000000000000000000000000000000000000000000000000000008216600482015273ffffffffffffffffffffffffffffffffffffffff83169063d6c68069906024015b600060405180830381600087803b1580156101fc57600080fd5b505af1158015610210573d6000803e3d6000fd5b505050505050565b6040517fffffffff00000000000000000000000000000000000000000000000000000000821660248201526000908190819073ffffffffffffffffffffffffffffffffffffffff861690604401604080517fffffffffffffffffffffffffffffffffffffffffffffffffffffffffffffffe08184030181529181526020820180517bffffffffffffffffffffffffffffffffffffffffffffffffffffffff167f0d74157700000000000000000000000000000000000000000000000000000000179052516102e691906107d4565b600060405180830381855afa9150503d8060008114610321576040519150601f19603f3d011682016040523d82523d6000602084013e610326565b606091505b509150915081610397576040517f08c379a000000000000000000000000000000000000000000000000000000000815260206004820152600b60248201527f63616c6c206661696c656400000000000000000000000000000000000000000060448201526064015b60405180910390fd5b808060200190518101906103ab9190610803565b95945050505050565b60005473ffffffffffffffffffffffffffffffffffffffff163314610405576040517f3d83866f00000000000000000000000000000000000000000000000000000000815260040160405180910390fd5b6040517f720850310000000000000000000000000000000000000000000000000000000081527fffffffff000000000000000000000000000000000000000000000000000000008216600482015273ffffffffffffffffffffffffffffffffffffffff8381166024830152841690637208503190604401600060405180830381600087803b15801561049657600080fd5b505af11580156104aa573d6000803e3d6000fd5b50505050505050565b60005473ffffffffffffffffffffffffffffffffffffffff163314610504576040517f3d83866f00000000000000000000000000000000000000000000000000000000815260040160405180910390fd5b6040517f8f28397000000000000000000000000000000000000000000000000000000000815273ffffffffffffffffffffffffffffffffffffffff8281166004830152831690638f283970906024016101e2565b60408051600481526024810182526020810180517bffffffffffffffffffffffffffffffffffffffffffffffffffffffff167ff851a4400000000000000000000000000000000000000000000000000000000017905290516000918291829173ffffffffffffffffffffffffffffffffffffffff8616916105d991906107d4565b600060405180830381855afa9150503d8060008114610614576040519150601f19603f3d011682016040523d82523d6000602084013e610619565b606091505b509150915081610685576040517f08c379a000000000000000000000000000000000000000000000000000000000815260206004820152600b60248201527f63616c6c206661696c6564000000000000000000000000000000000000000000604482015260640161038e565b808060200190518101906106999190610803565b949350505050565b73ffffffffffffffffffffffffffffffffffffffff811681146106c357600080fd5b50565b80357fffffffff00000000000000000000000000000000000000000000000000000000811681146106f657600080fd5b919050565b6000806040838503121561070e57600080fd5b8235610719816106a1565b9150610727602084016106c6565b90509250929050565b60008060006060848603121561074557600080fd5b8335610750816106a1565b92506020840135610760816106a1565b915061076e604085016106c6565b90509250925092565b6000806040838503121561078a57600080fd5b8235610795816106a1565b915060208301356107a5816106a1565b809150509250929050565b6000602082840312156107c257600080fd5b81356107cd816106a1565b9392505050565b6000825160005b818110156107f557602081860181015185830152016107db565b506000920191825250919050565b60006020828403121561081557600080fd5b81516107cd816106a156fea26469706673582212205ed162ca42e6a5790a80c36e3ffc5fa25a716d3da013994b82a77dfba73f4a1164736f6c63430008140033",
  "devdoc": {
    "kind": "dev",
    "methods": {},
    "version": 1
  },
  "userdoc": {
    "kind": "user",
    "methods": {},
    "version": 1
  },
  "storageLayout": {
    "storage": [
      {
        "astId": 285,
        "contract": "contracts/ProxyAdmin.sol:ProxyAdmin",
        "label": "owner",
        "offset": 0,
        "slot": "0",
        "type": "t_address"
      }
    ],
    "types": {
      "t_address": {
        "encoding": "inplace",
        "label": "address",
        "numberOfBytes": "20"
      }
    }
  }
}